:020000040000FA
:100000000C9462000C948A000C948A000C948A0070
:100010000C948A000C948A000C948A000C948A0038
:100020000C948A000C948A000C948A000C948A0028
:100030000C948A000C948A000C948A000C948A0018
:100040000C9468030C948A000C948A000C948A0027
:100050000C948A000C948A000C948A000C948A00F8
:100060000C948A000C948A000000000024002700F1
:100070002A0000000000250028002B0000000000DE
:1000800023002600290004040404040404040202DA
:100090000202020203030303030301020408102007
:1000A0004080010204081020010204081020000012
:1000B0000008000201000003040700000000000027
:1000C00000001E0711241FBECFEFD8E0DEBFCDBF5A
:1000D00011E0A0E0B1E0ECE1FFE002C005900D927C
:1000E000AA36B107D9F721E0AAE6B1E001C01D9216
:1000F000AA3BB207E1F710E0C2E6D0E004C02197C6
:10010000FE010E948607C136D107C9F70E94B203DB
:100110000C948C070C940000AF92BF92CF92DF92A8
:10012000EF92FF920F931F93CF93DF936C017B01AC
:100130008B01040F151FEB015E01AE18BF08C0173D
:10014000D10759F06991D601ED91FC910190F081B0
:10015000E02DC6010995892B79F7C501DF91CF9173
:100160001F910F91FF90EF90DF90CF90BF90AF90D5
:100170000895833081F028F4813099F08230A9F01D
:1001800008958730A9F08830C9F08430B1F48091A7
:1001900080008F7D03C0809180008F7780938000E6
:1001A000089584B58F7784BD089584B58F7DFBCF86
:1001B0008091B0008F778093B00008958091B00057
:1001C0008F7DF9CF1F93CF93DF93282F30E0F90174
:1001D000E255FF4F8491F901E656FF4FD491F901A2
:1001E000EA57FF4FC491CC23A9F0162F81110E942A
:1001F000B900EC2FF0E0EE0FFF1FEE58FF4FA59176
:10020000B4918FB7F894EC91111108C0D095DE230A
:10021000DC938FBFDF91CF911F910895DE2BF8CF34
:10022000CF93DF9390E0FC01E656FF4F24918A576D
:100230009F4FFC0184918823D1F090E0880F991F93
:10024000FC01E859FF4FA591B491FC01EE58FF4F16
:10025000C591D491623071F49FB7F8943C91822F8C
:10026000809583238C93E8812E2B28839FBFDF9179
:10027000CF9108958FB7F894EC912E2B2C938FBFCC
:10028000F6CF3FB7F89480916B0190916C01A091EB
:100290006D01B0916E0126B5A89B05C02F3F19F0E6
:1002A0000196A11DB11D3FBFBA2FA92F982F8827F6
:1002B000BC01CD01620F711D811D911D42E0660FD1
:1002C000771F881F991F4A95D1F70895089590E0E8
:1002D00080E008958F929F92AF92BF920F931F93E9
:1002E000CF93DF93CDB7DEB7A1970FB6F894DEBFFB
:1002F0000FBECDBF19A2423008F44AE08E010F5D57
:100300001F4F842E912CB12CA12CA50194010E9489
:100310005007E62FB901CA01EA3044F5E05DD80183
:10032000EE938D01232B242B252B79F790E080E091
:10033000109769F0FD0101900020E9F73197AF01B6
:100340004A1B5B0BBD0182EA91E00E948C00A196E2
:100350000FB6F894DEBF0FBECDBFDF91CF911F91D6
:100360000F91BF90AF909F908F900895E95CD7CF89
:10037000FC0101900020E9F73197AF01481B590BB0
:10038000BC0182EA91E00C948C00CF93DF93EC01E6
:1003900060E08E810E94E20061E08E810E94E200B6
:1003A00060E08E810E94E2008BE891E00197F1F716
:1003B000DF91CF910895CF92DF92EF92FF920F934A
:1003C0001F93CF93DF936C017C0187E0E80EF11C53
:1003D000D0E0C0E0062F10E0B8010C2E02C07595E9
:1003E00067950A94E2F76170F70181917F010E949D
:1003F000E2002196C430D10579F7C601DF91CF9193
:100400001F910F91FF90EF90DF90CF900C94C5015A
:10041000CF92DF92EF92FF920F931F93CF93DF93D0
:10042000EC01F62E642F8C810E94E2008D818F3FBB
:1004300019F060E00E94E2000F2D10E08F8584FF2C
:1004400025C06E0187E0C80ED11CF12CE12CB8014B
:100450000E2C02C0759567950A94E2F76170F6015B
:1004600081916F010E94E200FFEFEF1AFF0A88E01E
:10047000E816F10461F7CE01DF91CF911F910F9142
:10048000FF90EF90DF90CF900C94C501B80184E00D
:10049000759567958A95E1F7CE010E94DB016F2D76
:1004A000CE01DF91CF911F910F91FF90EF90DF90E0
:1004B000CF900C94DB0140E0682F82EA91E00C942D
:1004C000080281E00E945B028BE39FE10197F1F754
:1004D0000895CF93DF93823029F49091B101986011
:1004E0009093B1018093B5011092B60180E480939E
:1004F000B70180E18093B80180E58093B90161E0A4
:100500008091A6010E9410018091A7018F3F19F0F0
:1005100061E00E94100161E08091A8010E94100139
:10052000C2EAD1E09E01225A31408091B10184FD9E
:100530000BC084E090E021962817390744F461E06D
:100540008E810E941001EECF88E090E0F4CF8BE323
:100550009DE00197F1F760E08091A6010E94E20022
:1005600060E08091A8010E94E2008091A7018F3F86
:1005700019F060E00E94E2008091B10184FD34C076
:1005800063E082EA91E00E94DB01CBE4D6E4CE0195
:100590000197F1F763E082EA91E00E94DB01219785
:1005A000F1F763E082EA91E00E94DB0183E592E0EB
:1005B0000197F1F762E082EA91E00E94DB0180910D
:1005C000B10180620E945B0284E08093B2018CE002
:1005D0000E945B020E94610282E08093B30186E088
:1005E000DF91CF910C945B0280620E945B028BE4EE
:1005F00096E40197F1F78091B10180620E945B025D
:1006000083E592E00197F1F78091B10180620E9449
:100610005B02D5CF9091B501891710F08FEF890F4C
:10062000E82FF0E0EE55FE4F848980680C945B0261
:1006300041E00E94080281E090E00895CF92DF92AD
:10064000EF92FF926C01990FEE08FF08F7FE16C0BB
:1006500041E06DE282EA91E00E9408026627772776
:10066000CB016C197D098E099F094AE00E946A013D
:100670000196FF90EF90DF90CF9008954AE0C70178
:10068000B601FF90EF90DF90CF900C946A010F932A
:100690001F93CF93DF938C01EB010A9724F481E23F
:1006A00091E00E94B801C8010E941E0388E691E013
:1006B0000E94B801CA30D10524F481E291E00E9481
:1006C000B801CE01DF91CF911F910F910C941E03C1
:1006D0001F920F920FB60F9211242F933F938F9377
:1006E0009F93AF93BF938091830190918401A091D8
:1006F0008501B091860130916A0123E0230F2D37E7
:1007000058F50196A11DB11D20936A0180938301C4
:1007100090938401A0938501B093860180916B0131
:1007200090916C01A0916D01B0916E010196A11D97
:10073000B11D80936B0190936C01A0936D01B093F8
:100740006E01BF91AF919F918F913F912F910F902B
:100750000FBE0F901F90189526E8230F0296A11D3B
:10076000B11DD2CFCF93DF93CDB7DEB72A970FB6A7
:10077000F894DEBF0FBECDBF789484B5826084BD8F
:1007800084B5816084BD85B5826085BD85B5816095
:1007900085BD80916E00816080936E001092810013
:1007A00080918100826080938100809181008160CE
:1007B000809381008091800081608093800080918F
:1007C000B10084608093B1008091B000816080931B
:1007D000B00080917A00846080937A0080917A00E2
:1007E000826080937A0080917A00816080937A00A1
:1007F00080917A00806880937A001092C10082E034
:100800000E9469020E94610262E082E00E9410017F
:1008100062E083E00E94100162E084E00E94100127
:1008200062E085E00E94100162E086E00E94100113
:1008300061E087E00E94100161E088E00E94100101
:1008400060E087E00E94E20060E088E00E94E20051
:1008500080E00E940A0383E291E00E94B8010E94B6
:1008600041014B015C0148EBC42E4BE0D42EE12C3E
:10087000F12C0E944101681979098A099B09683E97
:10088000734081059105A8F301E0C01AD108E10881
:10089000F10818EE810E13E0911EA11CB11CC114C9
:1008A000D104E104F10429F70E94610280E00E9472
:1008B0000A038FE291E00E94B80181E00E940A03DE
:1008C0008CE391E00E94B80132E0832E912C8FB727
:1008D000F89440908301509084016090850170905D
:1008E00086018FBF8AE0EBE0F1E0DE011196019016
:1008F0000D928A95E1F7AE014F5F5F4F5A0190E08C
:10090000C92E91E0D92E2FE6E22E21E0F22E10E042
:1009100000E0F501219131915F013327F901E255A2
:10092000FF4F8491F901E656FF4F2490F901EA57F1
:10093000FF4F3490311006C0F60180818111E7C06D
:1009400080E00FC081110E94B900E32DF0E0EE0FAE
:10095000FF1FE458FF4FA591B491EC912E2261F353
:1009600081E0F60181936F010F5F1F4FF4E0EF0EFE
:10097000F11C0530110509F0CCCF80918B01882343
:10098000C9F12FB7F8948091830190918401A091CF
:100990008501B09186012FBF409187015091880158
:1009A0006091890170918A018C019D01041B150BD6
:1009B000260B370BB901A801483E5340610571056C
:1009C000A8F08093870190938801A0938901B09348
:1009D0008A01809198019091990101968C3391053B
:1009E0000CF022C1909399018093980110918B0192
:1009F000111141C160E087E00E94E20060E088E000
:100A00000E94E20000919E0110919F018091A0013F
:100A10009091A1018017910709F473C11093A1016E
:100A20000093A00181E00230110509F46CC14091EE
:100A30009C0150919D0120919A0130919B01609100
:100A4000090170910A016417750741F4609107016B
:100A5000709108016217730709F466C150930A0187
:100A60004093090130930801209307010E9461021D
:100A70000130110509F47BC108F460C10230110591
:100A800009F054C180E00E940A038AE591E00E94C7
:100A9000B8016091960170919701809194019091B5
:100AA00095010E94470388E691E00E94B801809179
:100AB0009801909199010A9724F481E291E00E94B3
:100AC000B80180919801909199010E941E0381E0E4
:100AD0000E940A0381E691E00E94B80160919201B0
:100AE0007091930180919001909191010E94470330
:100AF00085E691E00E94B80160918E0170918F01AE
:100B000080918C0190918D010E9447030FC1F701E4
:100B100080819181A281B381A3019201281B390BAD
:100B20004A0B5B0BDA01C9018D329140A105B10579
:100B300008F406CF408251826282738280919E01C6
:100B400090919F018230910509F017C10430110581
:100B500009F0F6CE10929F0110929E0110928B0127
:100B600010929D0110929C0110929B0110929A018B
:100B700010929101109290011092930110929201A3
:100B800010928D0110928C0110928F0110928E01A3
:100B900060E087E00E94E20060E088E00E94E200FE
:100BA000CFCE80919C0190919D01009711F001970B
:100BB000F6C087E190E0F3C080919A0190919B018B
:100BC00001966CE370E00E943C0790939B01809338
:100BD0009A01B6CE80919A0190919B01009711F0F5
:100BE0000197F3CF8BE390E0F0CF80919C0190913F
:100BF0009D01909391018093900180919A01909131
:100C00009B01909393018093920121E030E0309317
:100C10009F0120939E0110929D0110929C011092C1
:100C20009B0110929A018CCE10929901109298011A
:100C3000809196019091970101968C3391052CF447
:100C40009093970180939601D1CE109297011092C4
:100C500096018091940190919501019688319105BA
:100C60002CF49093950180939401C0CE109295013D
:100C700010929401BBCEE0919401F09195016091A6
:100C80009601709197018091900190919101ACE350
:100C9000A89FA001A99F500D1124809192019091CD
:100CA0009301480F591F20918C0130918D01A29F13
:100CB000C001A39F900D112420918E0130918F01CE
:100CC000280F391F4217530781F0AE9FC001AF9F15
:100CD000900D1124860F971F421753074CF4841769
:100CE00095071CF08217930734F010E060E004C011
:100CF00084179507BCF361E087E00E94E200612F52
:100D00007ECE80E090CE2091980130919901409163
:100D10000501509106014217530709F489C0309329
:100D2000060120930501A2CE8111A0CE80E090E0C3
:100D3000892B09F4CCCD0E940000C9CD80E00E942F
:100D40000A038FE291E00E94B80181E00E940A0349
:100D500060919A0170919B0180919C0190919D01FD
:100D60000E94470381E491E00E94B801DFCF80E058
:100D70000E940A038CE491E0E6CF0230110509F4E9
:100D80001BCF94F40130110509F40BCF80919C0125
:100D900090919D01019668E170E00E943C0790935C
:100DA0009D0180939C01CCCD0330110509F412CF35
:100DB0000430110559F7009709F417CF019709F08E
:100DC000BFCD80919C0190919D0190938D01809366
:100DD0008C0180919A0190919B0190938F01809357
:100DE0008E0190929F0180929E0131E030938B01A1
:100DF0001092950110929401109297011092960111
:100E000010929901109298012FB7F8948091830164
:100E100090918401A0918501B09186012FBF8093AC
:100E2000870190938801A0938901B0938A0188CDAE
:100E3000882309F47BCF0E94610224CEE2EAF1E02C
:100E40001382128289E191E0918380838CE0848314
:100E50008FEF85838BE086838AE0878389E08087B4
:100E60008DE081878EE0828713861486158616862C
:100E7000178681E00C94690297FB072E16F4009404
:100E800007D077FD09D00E94720707FC05D03EF419
:100E9000909581959F4F0895709561957F4F089526
:100EA000A1E21A2EAA1BBB1BFD010DC0AA1FBB1F6E
:100EB000EE1FFF1FA217B307E407F50720F0A21BE0
:100EC000B30BE40BF50B661F771F881F991F1A944D
:100ED00069F760957095809590959B01AC01BD0177
:100EE000CF010895AA1BBB1B51E107C0AA1FBB1F5E
:100EF000A617B70710F0A61BB70B881F991F5A95A6
:100F0000A9F780959095BC01CD010895EE0FFF1FC4
:100F10000590F491E02D0994F894FFCF01010101AF
:100F200001FFFFFFFFFFFF020003000400050006B2
:100F3000000000000018038C0067016601300054B7
:100F4000696D657220536574757000536574204F28
:100F50004E2054696D653A0030303A3030205B43A2
:100F60006F6E6669726D5D00536574204F46462052
:100F700054696D653A0054696D653A20004F4E3AE8
:060F8000004F46463A0056
:107E0000112484B714BE81FFF0D085E080938100F7
:107E100082E08093C00088E18093C10086E0809377
:107E2000C20080E18093C4008EE0C9D0259A86E02C
:107E300020E33CEF91E0309385002093840096BBD3
:107E4000B09BFECF1D9AA8958150A9F7CC24DD24C4
:107E500088248394B5E0AB2EA1E19A2EF3E0BF2EE7
:107E6000A2D0813461F49FD0082FAFD0023811F036
:107E7000013811F484E001C083E08DD089C08234E0
:107E800011F484E103C0853419F485E0A6D080C0E4
:107E9000853579F488D0E82EFF2485D0082F10E0AE
:107EA000102F00270E291F29000F111F8ED06801E7
:107EB0006FC0863521F484E090D080E0DECF843638
:107EC00009F040C070D06FD0082F6DD080E0C81688
:107ED00080E7D80618F4F601B7BEE895C0E0D1E017
:107EE00062D089930C17E1F7F0E0CF16F0E7DF06D8
:107EF00018F0F601B7BEE89568D007B600FCFDCFD4
:107F0000A601A0E0B1E02C9130E011968C91119780
:107F100090E0982F8827822B932B1296FA010C0160
:107F200087BEE89511244E5F5F4FF1E0A038BF0790
:107F300051F7F601A7BEE89507B600FCFDCF97BE46
:107F4000E89526C08437B1F42ED02DD0F82E2BD052
:107F50003CD0F601EF2C8F010F5F1F4F84911BD097
:107F6000EA94F801C1F70894C11CD11CFA94CF0C13
:107F7000D11C0EC0853739F428D08EE10CD085E9AC
:107F80000AD08FE07ACF813511F488E018D01DD067
:107F900080E101D065CF982F8091C00085FFFCCF94
:107FA0009093C60008958091C00087FFFCCF809118
:107FB000C00084FD01C0A8958091C6000895E0E648
:107FC000F0E098E1908380830895EDDF803219F02E
:107FD00088E0F5DFFFCF84E1DECF1F93182FE3DFCA
:107FE0001150E9F7F2DF1F91089580E0E8DFEE27F6
:047FF000FF270994CA
:027FFE00040479
:00000001FF
